:020000040800F2
:10000000A0050020450100083B2200089F200008B1
:1000100039220008DD020008652800080000000001
:10002000000000000000000000000000A7220008FF
:1000300017030008000000003D220008A922000864
:100040005F0100085F0100085F0100085F01000810
:100050005F0100085F0100085F0100085F01000800
:100060005F0100085F0100085F010008E10200086D
:100070005F0100085F0100085F0100085F010008E0
:100080005F0100085F0100085F0100085F010008D0
:100090005F0100085F0100085F0100085F010008C0
:1000A0005F0100085F0100085F0100085F010008B0
:1000B0005F0100081D2300085F0100085F010008C0
:1000C0005F0100085F0100085F0100085F01000890
:1000D0005F010008592800085F0100085F0100085F
:1000E0005F0100085F0100085F0100085F01000870
:1000F0005F0100085F0100085F0100085F01000860
:100100005F0100085F0100085F0100085F0100084F
:100110005F0100085F0100085F0100085F0100083F
:100120005F0100085F0100085F0100085F0100082F
:10013000DFF80CD000F02AF8004800470929000831
:10014000A00500200648804706480047FEE7FEE776
:10015000FEE7FEE7FEE7FEE7FEE7FEE7FEE7FEE777
:100160001923000831010008D2B201E000F8012B88
:10017000491EFBD270470022F6E710B513460A4627
:1001800004461946FFF7F0FF204610BD064C074D08
:1001900006E0E06840F0010394E807009847103457
:1001A000AC42F6D3FFF7C8FF6C2A00088C2A00087F
:1001B00070B5044600688168C943C9071BD18168CE
:1001C00021F00101816000F03FFE05460EE000F0E5
:1001D0003BFE401B022809D9A06A40F01000A06233
:1001E000E06A40F00100E062012070BD2068806894
:1001F000C043C007EBD0002070BD10B50146406A77
:10020000826A12F0500F05D0006A026BBDE8104000
:1002100008461047816A41F400718162016889686B
:10022000C1F3424107290CD1017B51B9816A21F404
:1002300080718162816AC90403D4816A41F001013D
:10024000816200F06FF910BD10B5406A816A41F01B
:1002500040018162C16A41F00401C16200F064F9A9
:1002600010BD10B5406A00F05EF910BDF8B500266B
:100270000446009600688168C943C90727D0816891
:1002800041F001018160134813490068B0FBF1F0AF
:1002900000E0401E00900028FBD100F0D5FD05468F
:1002A00010E000F0D1FD401B02280BD9A06A40F0FD
:1002B0001000A062E06A40F00100E06284F824606F
:1002C0000120F8BD20688068C043C007E9D1002044
:1002D000F8BD00002400002040420F00FEE70000AF
:1002E000014800F019BB00005C01002030B590F817
:1002F00040500124AC40C56B6C6004686360436887
:10030000102B036803D099600068C26030BD9A600A
:100310000068C16030BD704770B50E4B4FF47A6411
:100320000D4D14E021460CE0B3F95C20D60608D54B
:1003300022F01002A3F85C20B3F85A20521CA3F854
:100340005A20491E09B2EFD22968A3F86010401E56
:10035000E8D270BDF40000201C2800407047000067
:10036000F8B500260446009690F82400012808D02D
:10037000012084F824002046FFF71AFF070002D06E
:100380004BE00220F8BDA06A20F4885040F0020043
:10039000A062022000F0FCFD22490968B1FBF0F0E8
:1003A000400000E0401E00900028FBD12046FFF7EF
:1003B0005DFF2068816841F00801816000F044FD24
:1003C000054604E000F040FD401B0A2811D82068D3
:1003D00080680007F6D42068816841F004018160DC
:1003E00000F032FD05460EE000F02EFD401B0A280D
:1003F00009D9A06A20F0020040F01000A06284F841
:1004000024600120F8BD206880684007ECD4A06A11
:1004100020F0020040F00100A06284F82460384619
:10042000F8BD000024000020F8B50023009390F8E8
:1004300024201C46012A12D0012280F824204A6878
:100440001F26072A0DD205686F6B521E02EB82022F
:100450009640B7430E68964037436F6319E0022019
:10046000F8BD05680D2A0AD22F6BD21F02EB82025B
:100470009640B7430E68964037432F6309E0EF6A12
:100480000D3A02EB82029640B7430E68964037431E
:10049000EF620A68072605680A2A0AD3EF680A3A53
:1004A00002EB42029640B7438E6896403743EF60B6
:1004B00008E02F6902EB42029640B7438E689640EF
:1004C00037432F610A68102A01D0112A20D1124D1A
:1004D0000268AA4217D195682D0219D4956845F48F
:1004E000000595600968102912D10C490C4A096869
:1004F000B1FBF2F101EB8101490000E0491E0091DE
:100500000029FBD104E0816A41F0200181620123CE
:1005100080F824401846F8BD002401402400002043
:1005200040420F0070477047704700002DE9F041CE
:1005300004004FF000057FD0A06A002628B9E662CB
:1005400084F82460204600F081F82046FFF730FE52
:10055000A16AC90600D420B1A06A40F01000A062D0
:100560006AE0A16A21F4885141F00201A162334995
:1005700023688B42E16904D1B1F5402F01D14FF4DA
:100580000021277B4FF4807C41EA470261680A43DF
:10059000A168614508D0012906D0002194F814E033
:1005A000BEF1010F02D00AE06146F7E7C7B1A76AC2
:1005B00047F02007A762E76A47F00107E7625F6834
:1005C00027F469470F435F6021688B681C4F3B40ED
:1005D00013438B60A16861450BD0012909D00CE061
:1005E000DFF860E0A7690EEB47370F4347F400617F
:1005F000E5E7218A0D05A5F580152168CB6A23F46E
:1006000070032B43CB62216889680F4B19409142DC
:1006100008D1E662A16A21F0020141F00101A16264
:10062000BDE8F081A06A20F0020040F01000A06256
:10063000E06A40F00100E0620120F1E7003C014087
:10064000FDF7E1FF00E0FFFFFE0E1FFF70B586B073
:1006500000240646009401940294039400681A4909
:1006600088422ED11949886940F4007088618869F0
:1006700000F400700490886940F004008861886983
:10068000694600F0040004900620009003200190C9
:100690000F4800F0DBFA104D0E48C5E90004802039
:1006A000C5E9024040002861800068612020C5E95A
:1006B0000604284600F054FA08B1FFF74FFE3562F1
:1006C0006E6206B070BD00000024014000100240C0
:1006D00000080140080002405C0100202DE9F047BD
:1006E000894604463B4900683B4F0E1D90468842B0
:1006F00001D0B84207D1306810F4702F03D0012523
:100700002846BDE8F08794F8240001280CD0012089
:1007100084F824002046FFF7A9FD05004FF00001F2
:1007200004D084F82410EBE70220EAE7A06A40F640
:100730000162904340F48070A0622068B84218D1F2
:10074000326812F4702F14D0A06A40F48010A062B6
:100750003068400505D5A06A20F4005040F4805070
:10076000A062A06AC0040AD5E06A20F00600E06238
:1007700006E0A26A22F48012A2624068E9E7E16220
:1007800084F82410216A15488862216A1448C862D6
:10079000216A1448086321686FF00200086020682D
:1007A000816841F480718160216843464A464C313A
:1007B000206A00F013FA20688168C1F342410729DA
:1007C000816803D041F48011816099E741F4A00170
:1007D000FAE700000024014000280140FB01000866
:1007E00063020008490200082DE9F05F90F821102B
:1007F0000024022903D004218163012485E00168DB
:100800000A6822F00E020A6001680A6822F00102FA
:100810000A603F4E3E4FB215DFF8F4C0DFF8F090AB
:10082000DFF8ECA0DFF8E8B0DFF8E4E00168783F3B
:1008300013011502ACF1640CA9F15009AAF13C0AAC
:10084000ABF1280BAEF1140E4FF48018B14227D94A
:10085000B9420ED0614512D049451DD0514518D03E
:10086000594518D0714501D1424615E0294EB14293
:1008700001D1012210E0274E1436B14201D11022DD
:100880000AE0244E2836B14206D0224A3C32914238
:1008900001D11A4600E02A461E49091F0A602BE0D2
:1008A000B94213D0614517D0494522D051451DD0DA
:1008B00059451DD0714501D142461AE0B14202D1DD
:1008C0004FF0807215E0134EB14201D1012210E0C9
:1008D000104E1436B14201D110220AE00D4E2836D6
:1008E000B14206D00B4A3C32914201D11A4600E097
:1008F0002A46074980394A60012180F821100021E9
:1009000080F82010416B01B188472046BDE8F09F78
:1009100080000240080402402DE9F05FC16B0B68C3
:1009200001680A68046C4FF0040808FA04F8844D62
:10093000844E854FDFF814C2DFF81492DFF814A25A
:10094000DFF814B2DFF814E218EA030F65D05FEAAB
:10095000427862D50A68920603D40A6822F004023B
:100960000A60DFF8F0814FF48062016808F1140832
:1009700013011402414524D9A9420DD0B1420FD030
:10098000B9421AD0614515D0494515D0514501D11C
:10099000120312E0594501D104220EE0714501D144
:1009A00040220AE06D4D1435A94206D06B4A283228
:1009B000914201D11A4600E022466749091F0A60A8
:1009C00029E0A94213D0B14215D0B94220D06145E7
:1009D0001BD049451BD0514502D14FF4800217E08E
:1009E000414502D14FF0806212E0594501D1042205
:1009F0000EE0714501D140220AE0584D1435A9425C
:100A000006D0564A2832914201D11A4600E02246C9
:100A10004B4908394A60C16A71E04FF0020808FA90
:100A200004F818EA030F70D05FEA82786DD50A687F
:100A3000920606D40A6822F00A020A60012180F8B0
:100A40002110DFF810814FF40072016808F11408DA
:100A500013011402414524D9A9420DD0B1420FD04F
:100A6000B9421AD0614515D0494515D0514501D13B
:100A7000120312E0594501D102220EE0714501D165
:100A800020220AE0354D1435A94206D0334A2832D7
:100A9000914201D11A4600E022462F49091F0A60FF
:100AA00029E0A94213D0B14215D0B94220D0614506
:100AB0001BD049451BD0514502D14FF4001217E01D
:100AC000414502D14FF0007212E0594501D1022296
:100AD0000EE0714501D120220AE0204D1435A942D3
:100AE00006D01E4A2832914201D11A4600E0224621
:100AF000134908394A60002180F82010816A0029D2
:100B00001CD0BDE8F05F0847FFE70825A5401D425F
:100B100014D0120712D50A6822F00E020A6090F86B
:100B20004020C36B012101FA02F25A60816380F810
:100B30002110002180F82010016BE0E7BDE8F09F54
:100B4000080002401C000240300002404400024005
:100B5000580002406C000240080402401C0402409D
:100B600030B560B11A4B01681422994209D2194B71
:100B70000B44B3FBF2F292000264174A0AE0012030
:100B800030BD134B5B420B44B3FBF2F292000264A4
:100B90000F4A083AC263022280F821200A6843F60D
:100BA000F0739A43F0E901342343D0E902452C4322
:100BB0002343046923434469234384692343134340
:100BC0000B6000214163012242770177084630BD66
:100BD00008040240F8FFFDBF0000024070B5044663
:100BE00090F82000002501280CD0012084F8200076
:100BF00094F821600020012E06D084F82000022500
:100C0000284670BD022070BD022684F82160A063D2
:100C10002068066826F0010606602046FFF766FB9E
:100C2000E06A00282068016802D041F00E0106E069
:100C300021F0040101602068016841F00A010160AF
:100C40002068016841F001010160D9E72DE9F84F02
:100C5000DFF8C091002409F1040A0AF1040B2346CD
:100C60004FF00F080BF1040ECCE00127A7403A40EB
:100C7000BA4272D1DFF8A0C14D68A5EB0C066545FC
:100C80002BD00DDC032D34D005DC35B3012D19D06C
:100C9000022D2FD11BE0112D16D0122D2AD119E0D3
:100CA000B6F5881F19D006DCB6F5803F15D0B6F52D
:100CB000801F1FD111E0B6F5001F0ED0B6F5041F3E
:100CC00018D10AE0CB6815E0CB681B1D12E0CB6899
:100CD00008330FE0CB680C330CE08B682BB1012B91
:100CE0004FF0080303D0476104E0042302E00761EA
:100CF00000E00023FF2A01D8064601E000F10406C7
:100D00004FEA840501D9A5F12005376808FA05FCEA
:100D100027EA0C0703FA05F547EA050737604D682F
:100D2000ED006ED53D4DAE6946F00106AE61AD6990
:100D300024F0030605F001050095394D7719BE68CA
:100D4000A5072D0F08FA05FC26EA0C06DFF8D4C02B
:100D5000604503D14FF0000C25E052E0DFF8C8C039
:100D6000604502D14FF0010C1DE0DFF8C0C06045C6
:100D700002D14FF0020C16E0DFF8B4C0604502D19A
:100D80004FF0030C0FE0DFF8ACC0604502D14FF02C
:100D9000040C08E0DFF8A0C0604502D14FF0050C5C
:100DA00001E04FF0060C0CFA05FC4CEA060CC7F803
:100DB00008C04D68D9F80060ED034D4601D51643D3
:100DC00000E096432E604D68DAF80060AD035546AA
:100DD00001D5164300E096432E604D68DBF80060B5
:100DE000ED025D4601D5164300E096432E604D6846
:100DF000DEF80060AD02754601D5164300E096436B
:100E00002E60641C0A6832FA04F57FF42EAFBDE848
:100E1000F88F000000040140000011100010024093
:100E20000000014000080140000C0140001001409A
:100E30000014014000180140001C01400AB101618A
:100E400070470904FBE70000014880687047000014
:100E500018000020024881680278114481607047C0
:100E600018000020074810B5016841F0100101602A
:100E7000032000F075F8002000F006F800F024F8D8
:100E8000002010BD0020024070B50D4D04464FF407
:100E90007A712878B1FBF0F00A490968B1FBF0F0EB
:100EA00000F059FC48B9102C07D200222146501EF0
:100EB00000F036F800206C6070BD012070BD0000AD
:100EC00018000020240000200C4808B5816941F07A
:100ED00001018161816901F001010091C16941F065
:100EE0008051C161C069064900F080500090486897
:100EF00020F0E06040F00070486008BD0010024043
:100F000000000140002809DB00F01F020121914090
:100F10004009800000F1E020C0F800117047000097
:100F2000F0B40E4B1B68C3F30223C3F10704042C77
:100F300000D904241D1D072D01D2002300E0DB1E73
:100F4000012606FA04F56D1E0D409D409E40761E5A
:100F5000164045EA0601F0BC01F085BC0CED00E04E
:100F6000064A00F0070110684FF6FF03184040EAF8
:100F70000120034908431060704700000CED00E0B9
:100F80000000FA05014901200862704700000E4286
:100F900010B501462BA086B01DC88DE81D002DA000
:100FA0002D4C00680490002004292FD00BDC01296F
:100FB0002FD0022928D100F075F96168C1F3813181
:100FC000491C49001EE0082920D010291CD1616865
:100FD0002268D20118D5C1F38342C9031DF802006B
:100FE00009D5616804AAC1F34041515C1B4AB2FBB8
:100FF000F1F1484301E01A4948436168490203D4CA
:1010000040000321B0FBF1F006B010BD00F05AF92A
:10101000FAE7226AC2F30121012903D1920701D51F
:10102000C803F1E7022905D1626A920702D549F6A1
:101030004040E9E70329E7D121688903E4D54FF26D
:101040002440E1E702030405060708090A0B0C0D1A
:101050000E0F1010010200000010024000127A0072
:1010600000093D002DE9F84304460078344FC007DD
:1010700052D0F8690025C00008D4F86940F08050CB
:10108000F861F869012500F0805000902D48016852
:10109000C90511D40168804641F480710160FFF7F1
:1010A000D3FE064604E0FFF7CFFE801B642822D85B
:1010B000D8F80000C005F6D5386A10F4407020D08A
:1010C000A18801F4407181421BD0386A1E49012277
:1010D00020F440700A6000220A603862C00710D015
:1010E000FFF7B2FE064641F2883807E0FFF7ACFE94
:1010F000811B414502D90320BDE8F883386A800787
:10110000F4D5386A616820F44070084338621DB134
:10111000F86920F08050F8612078800705D578685C
:10112000A16820F44040084378602078C00605D5C7
:101130007868616920F48000084378600020DBE76C
:101140000010024000700040400442422DE9F04788
:101150000D46040067D0DFF81881D8F8000000F0D1
:101160000700A8420CD2D8F8001021F0070129434B
:10117000C8F80010D8F8000000F00700A84252D1CB
:1011800020683C4E810712D5400703D5706840F4B3
:10119000E06070602078000703D5706840F460500C
:1011A00070607068A16820F0F000084370602078DB
:1011B000C00727D06068012810D03168022810D0FD
:1011C000890700292FDA716821F00301014371605A
:1011D000FFF73AFE074641F288390CE0316889038F
:1011E000EFE78901EDE7FFF72FFEC11B494502D963
:1011F0000320BDE8F0877068616800F00C00B0EB78
:10120000810FF0D1D8F80010404601F00701A94243
:101210000BD9016821F0070129430160006800F043
:101220000700A84201D00120E3E72078400705D558
:101230007068E16820F4E06008437060207800077F
:1012400006D57068216920F4605040EAC1007060E2
:1012500000F038F87168084AC1F30311515CC840C6
:101260000649086006480068FFF70EFE0020C0E748
:101270000020024000100240522A000824000020F2
:101280001C0000200448054900684968044AC1F36D
:101290000221515CC8407047240000200010024029
:1012A000622A00080448054900684968044AC1F3F5
:1012B000C221515CC8407047240000200010024049
:1012C000622A000812A085B00FC88DE80F0014A094
:1012D000144B006804905968134801F00C02042A6A
:1012E00010D0082A0ED1C1F38342C9031DF80200B1
:1012F0000AD5596804AAC1F34041515C0A4A5043D7
:10130000B0FBF1F005B0704708494843FAE7000028
:1013100002030405060708090A0B0C0D0E0F101036
:10132000010200000010024000127A0000093D0096
:101330002DE9F84F04006FD02078BE4DC00747D08C
:101340006868C0F38100012807D06868C0F3810095
:10135000022809D16868C00306D52868800337D5FC
:1013600060680028E7D033E06068B0F5803F0BD0BC
:1013700010B1B0F5A02F11D0286820F4803028607B
:10138000286820F4802002E0286840F4803028603B
:10139000606888B1FFF758FD064609E0286840F408
:1013A00080202860F0E7FFF74FFD801B642873D88A
:1013B00028688003F7D50BE0FFF746FD064604E0FA
:1013C000FFF742FD801B6428F1D828688003F7D41A
:1013D0002078DFF8648280074FF0010A4FF000099F
:1013E00039D5686810F00C0F07D06868C0F3810029
:1013F000022809D16868C00306D42868800714D57C
:101400002069012808D110E02069B0B1C8F800A017
:10141000FFF71AFD064605E007E1FFF715FD801B03
:101420000228C4D828688007F7D52868616920F0A9
:10143000F80040EAC10028600DE0C8F80090FFF70E
:1014400003FD064604E0FFF7FFFC801B022823D8BB
:1014500028688007F7D4207800072CD57748A16941
:10146000D9B1C0F800A0FFF7EFFC064604E0FFF793
:10147000EBFC801B02280FD8686A8007F7D57048FC
:101480004FF4FA510068B0FBF1F0009000BF0098F3
:10149000411E0091FAD20EE07CE0C0F80090FFF708
:1014A000D3FC064604E0FFF7CFFC801B022871D86E
:1014B000686A8007F7D4207840075BD5E869002781
:1014C000C00008D4E86940F08050E861E86901276D
:1014D00000F0805000905B480168C90511D4016894
:1014E000834641F480710160FFF7AEFC064604E0DC
:1014F000FFF7AAFC801B64284CD8DBF80000C0056D
:10150000F6D5E06801280AD008B1052813D0286A6A
:1015100020F001002862286A20F0040002E0286A16
:1015200040F001002862E06841F2883B88B1FFF793
:101530008BFC064609E0286A40F004002862EEE7CA
:10154000FFF782FC811B59455BD8286A8007F7D5D5
:101550000BE0FFF779FC064604E0FFF775FC811B02
:1015600059454ED8286A8007F7D41FB1E86920F0A2
:101570008050E861E069A8B36968C1F3810102297C
:1015800046D00228484606D0C8F86000FFF75CFC49
:10159000044639E035E04746C8F86000FFF754FCE0
:1015A000064604E0FFF750FC801B022829D8286873
:1015B0008001F7D4206AB0F5803F05D16868A16842
:1015C00020F4003008436860D4E9080108436968E2
:1015D00021F4741108436860C7F860A0FFF734FC79
:1015E000044605E023E0FFF72FFC001B022808D883
:1015F00028688001F7D51AE0FFF726FC001B0228B7
:1016000002D90320BDE8F88F28688001F4D40EE0E9
:101610000128F7D06868226A00F48031914204D131
:10162000616A00F47010884201D00120EAE70020CE
:10163000E8E70000001002400000424280044242FD
:10164000240000200070004070B5040003D0607CCE
:10165000002610B105E0012070BD2674204600F080
:1016600043F802206074204600F058F8042578BB47
:10167000204600F0E4FD58BB2068416821F00701D6
:101680004160A06820B11748016821F001010160A4
:101690001448001F0168A26821F4607111430160C1
:1016A0006068411C04D10120FFF772FC80B1401E2C
:1016B00021688A6822F00F0242EA10428A6021689B
:1016C000CA6860F30F02CA60204600F0D2FD08B17C
:1016D0006574C0E7E67301206073A0736074002036
:1016E00070BD0000306C004008B5006808498842B1
:1016F0000DD1FFF747FC0748C16941F00061C161A6
:10170000C069054900F0006000900120086008BD34
:1017100000280040001002403C04424270B5040022
:101720000AD02068416821F008014160FFF78CFB76
:1017300005464FF47A7608E0012070BDFFF784FB80
:10174000401BB04201D9032070BD206840680007EB
:10175000F4D5002070BD10B5401EB0F1807F01D3DC
:10176000012010BD4FF0E02460610F21601701F0EF
:101770007AF80020A06107202061002010BD70478A
:101780007047000070B590F83C20012A2CD001254C
:1017900080F83C50022280F83D200268536894682B
:1017A00023F070060B6833435360104B02689A4273
:1017B0000ED00F4B9A420BD0B2F1804F08D00D4B98
:1017C0009A4205D00C4B9A4202D00C4B9A4204D15B
:1017D000496824F080031943916080F83D5000214E
:1017E00080F83C10084670BD022070BD002C0140FE
:1017F000003401400004004000080040000C00409C
:1018000010B5040003D094F83D0010B107E00120AA
:1018100010BD002084F83C00204600F01FF8022094
:1018200084F83D00211D206800F0EEFD012084F8C1
:10183000460084F83E0084F83F0084F8400084F8B5
:10184000410084F8420084F8430084F8440084F89E
:10185000450084F83D00002010BD000008B5006878
:101860000B49884212D10B48C16941F00201C161A4
:10187000C069002200F00200009011461D20FFF711
:101880004FFBBDE808401D20FFF73CBB08BD000032
:10189000000400400010024090F83D10012901D0E2
:1018A00001207047022180F83D100168CA6842F0AB
:1018B0000102CA6000680E4988420ED00D49884274
:1018C0000BD0B0F1804F08D00B49884205D00B49AE
:1018D000884202D00A49884204D1816801F0070198
:1018E000062903D0016841F0010101600020704722
:1018F000002C01400034014000040040000800407A
:10190000000C004070B5044690F83C00012817D048
:10191000012584F83C50022084F83D00206882684C
:1019200022F0770222F47F4282600868502830D08B
:101930000DDC20284DD005DC98B310283BD148E0C1
:10194000022070BD302844D0402834D139E06028CE
:1019500028D0702806D0B0F5805F2CD0B0F5005F9D
:1019600029D10AE0CB68D1E90121206800F092FD7D
:101970002068816841F0770109E0CB68D1E9012155
:10198000206800F087FD2068816841F48041816013
:1019900011E0CA684968206800F050FE50212068B4
:1019A00007E016E0CA684968206800F058FE602128
:1019B000206800F079FD84F83D50002084F83C0058
:1019C00070BDCA684968206800F038FE4021206870
:1019D000EFE7226801461046EBE7704770B5044612
:1019E000006801694FF00005C943890715D4C16833
:1019F000C943890711D4E91E0161012020772068BD
:101A000080698007204602D0FFF7E7FF04E000F07E
:101A1000C9F8204600F058F9257720680169C943C4
:101A2000490717D4C168C943490713D46FF00401AB
:101A30000161022020772068806910F4407F2046F1
:101A400002D0FFF7CAFF04E000F0ACF8204600F037
:101A50003BF9257720680169C943090716D4C16895
:101A6000C943090712D46FF00801016104202077EF
:101A70002068C0698007204602D0FFF7AEFF04E06F
:101A800000F090F8204600F01FF9257720680169E2
:101A9000C943C90617D4C168C943C90613D46FF036
:101AA00010010161082020772068C06910F4407F90
:101AB000204602D0FFF791FF04E000F073F82046C3
:101AC00000F002F9257720680169C943C90708D1E8
:101AD000C168C943C90704D1891E0161204600F0CD
:101AE000F4F820680169C943090609D4C168C943EB
:101AF000090605D46FF0800101612046FFF73FFE23
:101B000020680169C943490609D4C168C943490627
:101B100005D46FF040010161204600F0D7F820683D
:101B20000169C94389060BD4C168C943890607D432
:101B30006FF0200101612046BDE87040FFF720BE34
:101B400070BD000000B585B00021009101910291A7
:101B5000039100680F4988421AD10F48816941F00A
:101B6000100181618069694600F0100004908020B6
:101B700000900220019003900848FFF767F8084999
:101B8000486820F4406040F0E06040F44060486005
:101B900005B000BD000400400010024000100140EC
:101BA00000000140704770B5044690F83C000D46B7
:101BB00001280AD0012084F83C0042B1042A18D040
:101BC000082A2AD00C2A4DD139E0022070BD2068A5
:101BD00000F072FC2068816941F008018161206891
:101BE000816921F004018161206881692A691143BA
:101BF00011E0206800F090FC2068816941F40061E8
:101C000081612068816921F4806181612068816936
:101C10002A6941EA0221816124E0206800F0B2FCD7
:101C20002068C16941F00801C1612068C16921F0E3
:101C30000401C1612068C1692A69114311E020686B
:101C400000F0D4FC2068C16941F40061C1612068E2
:101C5000C16921F48061C1612068C1692A6941EAD2
:101C60000221C161002084F83C0070BD10B5040061
:101C700003D094F83D0010B107E0012010BD002012
:101C800084F83C00204600F01EF8022084F83D0055
:101C9000211D206800F0B8FB012084F8460084F87C
:101CA0003E0084F83F0084F8400084F8410084F846
:101CB000420084F8430084F8440084F8450084F826
:101CC0003D00002010BD7047704770477047704757
:101CD00070B5026804461068D168536910F00F0FA0
:101CE00052D003F0010501F490762E435FD0C20775
:101CF00005D0CA0503D5E26B42F00102E263420758
:101D000005D5DA0703D0E26B42F00202E2638207F4
:101D100005D5DA0703D0E26B42F00402E263020762
:101D200007D501F020022A4303D0E26B42F00802FB
:101D3000E263E26B002A33D0800604D5880602D520
:101D4000204600F0B4FC20684069E16BC0F38010CD
:101D5000090700D428B3204600F09BFC20684169A5
:101D600049061AD5416921F040014161606BA0B17B
:101D70002D494163606BFEF737FD002810D0606B82
:101D8000416BBDE870400847830610D58B060ED521
:101D90002046BDE8704000F08ABC2046FFF797FF60
:101DA00070BD2046FFF793FF0020E06370BD03067F
:101DB0002BD50B0629D594F839002128F6D1A06837
:101DC000B0F5805F01D12069B0B1206A411C216269
:101DD000216800784860E08C401E0004000CE0841C
:101DE000E4D12068C16821F08001C1602068C16829
:101DF00041F04001C16070BD206A0088C0F3080056
:101E00005060206A801C2062E5E74006F3D5480652
:101E1000F1D5D168204621F04001D160202184F81D
:101E2000391000F03BF970BD8326000870B504003E
:101E300004D094F83900002510B106E0012070BDEF
:101E400084F83850204600F023F8242084F8390024
:101E50002068C16821F40051C160204600F06EFC8A
:101E60002068016921F4904101612068416921F0F5
:101E70002A0141612068C16841F40051C160E563F5
:101E8000202084F8390084F83A00002070BD00005A
:101E900030B585B000240094019402940394006846
:101EA000184988422CD11848816941F480418161E8
:101EB000816901F480410491816941F004018161EB
:101EC0008069124D00F0040004904FF400700090FF
:101ED000022001900320039069462846FEF7B6FED3
:101EE0002815CDE90004694628460294FEF7AEFEA7
:101EF000002201212520FFF713F82520FFF702F823
:101F000005B030BD0038014000100240000801401B
:101F100090F83A30202B22D1F9B1F2B190F8383054
:101F2000012B1CD081628285C2850021C1632222DF
:101F300080F83A2080F838100168CA6842F480724C
:101F4000CA6001684A6942F001024A610068C168DA
:101F500041F02001C160002070470120704702203D
:101F60007047000070B5204C012294F85400401CCA
:101F700000F00700A4F8540004EB4000B4F8561039
:101F8000A0F8401004F15601A1F19600FFF7C0FF40
:101F9000B4F8560004F15806401CA4F8580041F269
:101FA000883511482B4601223146403800F01EF892
:101FB0000028F6D1B4F85600FE2813D10A492B4662
:101FC0001022A1F1400000F011F80028F6D1064CD3
:101FD000203405482B4610222146403800F006F8F0
:101FE0000028F6D170BD0000F40000202DE9F84370
:101FF000044690F839001F4615460E4620284BD15E
:10200000C6B1BDB194F83800012845D0012084F84C
:1020100038004FF00008C4F83C80212084F83900D3
:10202000FEF712FFA5848146E584A068B0F5805FC5
:1020300003D004E00120BDE8F883206920B13546D3
:10204000002684F838800EE00025FAE7802120463B
:1020500000F0D0FBA0B9ADB115F8010B21684860C4
:10206000E08C401EE084E08C4B464FF0000200976D
:102070000028EBD14FF04001204600F0BBFB30B10F
:102080000320D8E736F8020BC0F30800E6E720206B
:1020900084F839000020CEE70220CCE77047FEE745
:1020A0003EB500211048009101910E4A0291026054
:1020B00092158260017301750224D2020461C2612B
:1020C0004160FEF733FA01200090CDE90104694632
:1020D0000548FEF7A9F90094694603480194FEF704
:1020E000A3F93EBD00240140280000202DE9F04165
:1020F00086B000242B4800940194029403948169D3
:1021000041F040018161816901F0400104918169E0
:1021100041F010018161816901F010010491816930
:1021200041F004018161816901F004010491816938
:1021300041F00801816180691B4F00F008000490A4
:1021400000227F213846FEF779FEDFF86080012209
:1021500020214046FEF772FE1C2001258DE831004B
:1021600069461348FEF772FD7F200226CDE900057F
:10217000CDE9024669463846FEF768FDCDE90054D0
:1021800069460C480296FEF761FD2020CDE9000566
:10219000CDE9025669464046FEF758FD06B0BDE857
:1021A000F08100000010024000100140000C0140CE
:1021B000001801400008014010B58EB000240794BB
:1021C000089409940A940B941C2168460C94FDF71A
:1021D000D2FF1848164901600721C0E9011440F6F2
:1021E000C911C0E9031480218161FFF709FB4FF495
:1021F0008050079007A90F48FFF784FB0D48FFF7B1
:1022000035FD3020CDE90B040BA90A48FFF7BAFAD7
:10221000602000900620CDE90104042269460548AB
:102220000494FFF7C0FC0348FFF78CFC0EB010BD10
:10223000000400406C000020FEE77047704770B556
:102240000546FEF701FE04464FF47A7606E0FEF7F7
:10225000FBFD001BB04201D9032070BD2868406817
:102260008006F4D52868416841F0100141600020E3
:1022700070BD70B505460068416821F010014160ED
:10228000FEF7E2FD04464FF47A7606E0FEF7DCFD49
:10229000001BB04201D9032070BD28684068800649
:1022A000F4D5002070BD7047FEF7D4BD30B595B0B1
:1022B00028216846FDF75FFF14210AA8FDF75BFFA0
:1022C00018210FA8FDF757FF0A20009001200225D2
:1022D000CDE906051021CDE9040100244FF460107A
:1022E000CDE908406846FFF723F80F20CDE90A053D
:1022F0006802CDE90C4002210AA80E94FEF726FFE1
:1023000003200F90280210904FF4404011900FA826
:10231000FEF7A8FE15B030BD7047000010B5344C74
:1023200042F248612088401C80B2B0FBF1F201FB10
:10233000120141F224322F482180914203D25822C7
:1023400002EB510203E041F27C32A2EB5102026047
:102350000A20B1FBF0F200FB12122748012A0068A4
:102360000AD1B0F85E20521CA0F85E20B0F85C20C4
:1023700042F00F02A0F85C206422B1FBF2F302FBF2
:10238000131222B930F85C2F42F0F00202801B4891
:10239000006800070BD401F00700032801D9184892
:1023A00001E01748001D016841F02001016000F0C4
:1023B00079FA60880022401C80B26080A188A0F574
:1023C0004063491C89B2A180793B03D16280E088D7
:1023D000401CE080A1F580703F3803D1A2802089A5
:1023E000401C2081BDE810400648FFF7F7BA000006
:1023F0000C000020380400400800002008180140AC
:10240000100C01406C000020F0B502681C4D1D4E00
:102410001D4FDFF878C01E4B4FF0804EA84209D008
:10242000984207D0704505D0B04203D0B84201D0E1
:10243000604503D122F070044A682243A84209D0C3
:10244000984207D0704505D0B04203D0B84201D0C1
:10245000604503D122F44074CA6822434C6922F0DB
:102460008002224302608A68C2620A688262A842CD
:1024700001D0984201D10969016301214161F0BD98
:10248000002C01400004004000080040000C004007
:102490000034014010B5846842EA032224F47F44EA
:1024A0000A432243826010BD826822F070020A4310
:1024B00042F0070181607047F0B5026A22F0010224
:1024C0000262026A43688469114E24F073050C6845
:1024D000104F2C4322F002058A682A43B04201D0F3
:1024E000B84205D122F00805CA682A4322F0040246
:1024F000B04201D0B84205D14D6923F440731D4369
:102500008B692B4343608461496841630262F0BD7B
:10251000002C014000340140F0B5026A22F01002A4
:102520000262026A436884690D6824F4E64444EA5E
:1025300005248D6822F0200242EA05120F4D104E4C
:10254000A84201D0B04206D1CF6822F0800242EA10
:10255000071222F04002A84201D0B04207D14D69D3
:1025600023F4406343EA85038D6943EA85034360AE
:102570008461496881630262F0BD0000002C014063
:1025800000340140F0B5026A22F480720262026AED
:102590004368C46922F4007224F073050C68124E7B
:1025A0002C438D6842EA05220E4DA84201D0B0426C
:1025B00006D1CF6822F4006242EA072222F4806248
:1025C000A84201D0B04207D14D6923F4405343EAF9
:1025D00005138D6943EA05134360C4614968C1630B
:1025E0000262F0BD002C01400034014030B5026AA7
:1025F00022F480520262036A4268C4690D6824F4BE
:10260000E64444EA05248D6823F4005343EA053385
:10261000084DA84202D0084DA84204D14D6922F4C9
:10262000804242EA85124260C461496801640362E3
:1026300030BD0000002C01400034014010B5046A98
:10264000036A23F001030362836923F0F00343EA82
:10265000021324F00A020A438361026210BD10B51E
:10266000036A23F0100303628469036A24F470444C
:1026700044EA023223F0A00343EA011182610162BD
:1026800010BD10B5406A0021C185C184FFF71FFB52
:1026900010BD0168CA6822F49072CA6001684A6974
:1026A00022F001024A61202180F83A10704710B5EB
:1026B00090F83A10222901D0022010BD81684FF411
:1026C0008053994201D1026922B1826A99421BD09A
:1026D00049B10AE00268816A5268C2F308020A80BE
:1026E000816A891C08E0016971B10168496801F0DB
:1026F0007F011170816A491C8162C18D491E0904E4
:10270000090CC18503D016E001684968F1E701684A
:10271000CA6822F02002CA600168CA6822F4807286
:10272000CA6001684A6922F001024A61202180F8EA
:102730003A10FFF717FC002010BD000070B50446EA
:1027400000680169E26821F4405111430161A16808
:1027500020690143606901432068C26841F20C634B
:102760009A430A43C26020684169A26921F440711A
:10277000114341611E492068884202D1FEF792FD53
:1027800001E0FEF77FFD00EBC00101EB0011606886
:1027900064228000B1FBF0F3B3FBF2F36FF0180694
:1027A0007343B1FBF0F5B1FBF0F605EB8305322383
:1027B00003EB0515B5FBF2F5B6FBF2F605F0F005F7
:1027C00005EB0615B1FBF0F6B1FBF0F0B0FBF2F053
:1027D0006FF01801484306EB800003EB0010B0FBDC
:1027E000F2F0216800F00F002844886070BD0000FE
:1027F000003801402DE9F0411E4617468846044640
:10280000069D1CE0681C1AD025B1FEF71DFB801B3D
:10281000A84214D92068C16821F4D071C160206831
:10282000416921F001014161202084F8390084F8D8
:102830003A00002084F838000320BDE8F0812068C9
:10284000016838EA010004D00020B842DAD0002044
:10285000F3E70120F9E700000148FFF739BA00006B
:10286000B4000020FEE70907090E002804DB00F190
:10287000E02080F80014704700F00F0000F1E02025
:1028800080F8141D704702E008C8121F08C1002A12
:10289000FAD170477047002001E001C1121F002AE1
:1028A000FBD17047164A10B51078401CC0B21070AA
:1028B000082823D1002010701248B0F95010B0F948
:1028C0005230B0F956401944B0F9543023441944F9
:1028D000B0F958301944B0F95A301944B0F95C30A5
:1028E0001944B0F95E301944CB1701EB5371CB108A
:1028F000517800EB4100491C0384517010BD000069
:1029000000000020F400002008B5FEF7ABFAFFF746
:10291000CDFCFFF7EBFB4348416941F00101416108
:102920004069002200F00100009011460B20FEF7E4
:10293000F7FA0B20FEF7E6FAFFF7B2FBFFF73CFCD5
:102940003A483949002601604FF41651C0E9011692
:102950000C21C660C0E904618661C661FFF766FAB2
:10296000324833495C380160711E416080218160CA
:10297000FEF76AFE2F48016841F0100101602B4804
:102980004838FEF789FF29488C38FDF7E9FC2749CC
:1029900002229031A1F58E70FDF7A0FE234901229D
:1029A00096312248FFF7B4FA204F234C4037DFF826
:1029B0008C80DFF88CA0234D4FF00A09A760D8F86F
:1029C0000000C007608821D0093001B291FBF9F204
:1029D00009FB121060801AF800102A69114329615E
:1029E000C0EBC00101EB001000F5FA70FDF794FC9C
:1029F000686940F0FF006861B4F90200A28800EB4A
:102A00004001114427F8101010B104E0401CDCE72D
:102A1000F98BB983FE83F98B37F810000844F883EB
:102A2000CDE700000010024000380140B400002053
:102A30000028004020040040000000200808014059
:102A4000482A000800100140C0F9A4B0999282F809
:102A5000809000000000000000000102030406074F
:102A60000809000000000102030400008C2A00088D
:102A7000000000202800000086280008B42A000872
:102A800028000020780500009628000800000000BB
:102A90000300000000000000000000000000000033
:102AA0000000000001000000100000000000000015
:042AB0000024F4000A
:0400000508000131BD
:00000001FF
